:020000040800F2
:1000000000500020C50800086508000867080008BF
:10001000690800086B0800086D080008000000006F
:100020000000000000000000000000006F08000851
:100030007108000800000000730800087508000837
:100040000D0900080D0900080D0900080D09000838
:100050000D0900080D0900080D0900080D09000828
:100060000D0900080D0900080D0900080D09000818
:100070000D0900080D0900080D0900080D09000808
:100080000D0900080D0900080D0900080D090008F8
:100090000D0900080D0900080D0900080D090008E8
:1000A0000D0900080D0900080D0900080D090008D8
:1000B0000D0900080D0900080D0900080D090008C8
:1000C0000D0900080D0900080D0900080D090008B8
:1000D0000D0900080D0900080D0900080D090008A8
:1000E0000D0900080D0900080D09000800000000B6
:1000F0000000000000000000000000000000000000
:0C01000000000000000000005FF808F1A3
:10010C0010B5054C237833B9044B13B10448AFF345
:10011C0000800123237010BD0C00002000000000A3
:10012C006809000808B5034B1BB103490348AFF33A
:10013C00008008BD000000001000002068090008C5
:10014C0038B50E4B054618784FF47A73B3FBF0F3C1
:10015C000B4A1068B0FBF3F000F080F8044658B975
:10016C000F2D09D8024629464FF0FF3000F042F817
:10017C00044B20461D6038BD012038BD0000002016
:10018C000800002004000020074A08B5136803206B
:10019C0043F01003136000F01BF80020FFF7D0FFB2
:1001AC0000F038FB002008BD00200240034A044B3D
:1001BC0011681B780B441360704700BF2C000020A3
:1001CC0000000020014B1868704700BF2C00002075
:1001DC00074A0002D36800F4E06023F4E0631B04D8
:1001EC001B0C43F0BF6343F400330343D3607047ED
:1001FC0000ED00E0174B30B5DC68C4F30224C4F109
:10020C000703251D042B28BF0423062D4FF00105E1
:10021C0098BF002405FA03F303F1FF3388BF033CB6
:10022C001940A14005FA04F4013C2240002842EA9E
:10023C0001024FEA0212AFBF00F16040064B00F022
:10024C000F00D2B2A5BFD2B200F561401A5480F8AB
:10025C00002330BD00ED00E014ED00E00138B0F1FA
:10026C00807F0AD2F021064B064A586082F8231090
:10027C000020072298601A6070470120704700BF69
:10028C0010E000E000ED00E003682DE9F341DB072E
:10029C00054610D42B689F075ED42B68190700F114
:1002AC0095802B685A0700F1BF80EA69002A40F05C
:1002BC002D81002014E0904C636803F00C03042B98
:1002CC0007D0636803F00C03082B0CD16368DE03C2
:1002DC0009D523689C03DDD56B68002BDAD101208E
:1002EC0002B0BDE8F0816B68B3F5803F10D1236894
:1002FC0043F480332360FFF765FF064623689803B9
:10030C00C8D4FFF75FFF801B6428F7D90320E7E709
:10031C009BB9236823F480332360236823F4802360
:10032C002360FFF74FFF064623689903B2D5FFF70A
:10033C0049FF801B6428F7D9E8E7B3F5A02F2368A1
:10034C0003D143F480232360D1E723F4803323606B
:10035C00236823F48023CDE7674C636813F00C0FFC
:10036C0007D0636803F00C03082B10D16368DA0321
:10037C000DD423689B0702D52B69012BAFD12368C1
:10038C006A6923F0F80343EAC203236085E72A690C
:10039C005A4B6AB101221A60FFF714FF0646236814
:1003AC009F07ECD4FFF70EFF801B0228F7D9ADE7AF
:1003BC001A60FFF707FF0646236898077FF56DAFB5
:1003CC00FFF700FF801B0228F6D99FE7AA694A4C69
:1003DC004B4BDAB101221A60FFF7F4FE0646636A52
:1003EC009B070DD54FF4FA52464B1B68B3FBF2F347
:1003FC00019300BF019B5A1E0192002BF9D150E7CB
:10040C00FFF7E0FE801B0228E9D97FE71A60FFF7AF
:10041C00D9FE0646636A9F077FF543AFFFF7D2FE0E
:10042C00801B0228F6D971E7334CE369D80024D439
:10043C000127E36943F08053E361E36903F08053E0
:10044C000093009B304E3368D90518D5EB68012B0F
:10045C0026D1236A43F001032362FFF7B3FE41F276
:10046C0088368046236A9B073FD5002F3FF41DAF8B
:10047C00E36923F08053E36117E70027E2E7336871
:10048C0043F480733360FFF79DFE80463368DA05D2
:10049C00DCD4FFF797FEA0EB08006428F6D935E70B
:1004AC00ABB9236A41F2883823F001032362236A33
:1004BC0023F004032362FFF785FE0646236A9807A0
:1004CC00D3D5FFF77FFE801B4045F7D91EE7052BE0
:1004DC00236A03D143F004032362BAE723F0010338
:1004EC002362236A23F00403B6E7FFF76BFEA0EB4D
:1004FC000800B042B6D909E70010024000004242A1
:10050C00800442420800002000700040224C6368C6
:10051C0003F00C03082B3FF4E2AE00231F4E022A1B
:10052C0033602BD1FFF74EFE0746236899011FD489
:10053C002B6AB3F5803F05D16268A96822F40032BA
:10054C000A436260696A62680B4322F474121343B3
:10055C00636001233360FFF735FE054623689A017B
:10056C003FF5A7AEFFF72EFE401B0228F6D9CDE6CD
:10057C00FFF728FEC01B0228D7D9C7E6FFF722FEDB
:10058C00054623689B017FF594AEFFF71BFE401BCD
:10059C000228F6D9BAE600BF0010024060004242C1
:1005AC0030B5194B87B002AC03F110052246186820
:1005BC005968083303C2AB421446F7D101238DF8B6
:1005CC000430022311498DF805304B6803F00C02FE
:1005DC00082A17D1C3F3834206A80244DB0312F89E
:1005EC00102C0CD54B680A48C3F34043504306AA61
:1005FC00134413F8143CB0FBF3F007B030BD0548BE
:10060C005043FAE70248F8E780090008001002405E
:10061C0000127A0000093D00544A2DE9F04113689C
:10062C00054603F007038B420E462AD329688C0734
:10063C0034D4CA0747D44D4A136803F007039E42CB
:10064C00C0F082802A684A4C12F0040F40F0878078
:10065C00130706D563682A6923F4605343EAC2037F
:10066C006360FFF79DFF6368424AC3F30313D35CD7
:10067C00D840414B18600020FFF762FD0020BDE818
:10068C00F081136823F007030B431360136803F026
:10069C0007039942CAD00120BDE8F081344B11F018
:1006AC00040F1EBF5A6842F4E0625A60080742BF4A
:1006BC005A6842F460525A605A68A86822F0F002F4
:1006CC0002435A60B5E76A68294C012A23681CD199
:1006DC0013F4003FDFD0636841F2883823F0030342
:1006EC0013436360FFF76EFD6B680746012B14D153
:1006FC00636803F00C03042B9DD0FFF763FDC01B54
:10070C004045F5D90320BDE8F081022A02D113F04F
:10071C00007FDFE713F0020FDCE7022B0FD16368D9
:10072C0003F00C03082B86D0FFF74CFDC01B404593
:10073C00F5D9E7E7FFF746FDC01B4045E2D86368F3
:10074C0013F00C0FF6D176E7136823F0070333434D
:10075C001360136803F007039E429CD172E7636831
:10076C00E96823F4E0630B43636071E70020024007
:10077C0000100240900900080800002010B590B04D
:10078C002822002106A800F0E1F80021142201A87B
:10079C0000F0DCF84FF480330122022407930E930F
:1007AC004FF4E01306A806920A920F930D94FFF7EC
:1007BC006BFD0F234FF4806201930023214601A8A7
:1007CC000294039304920593FFF726FF10B010BD1B
:1007DC0007B5FFF7D9FCFFF7D1FF0C4B9A6942F034
:1007EC0020029A619A6902F020020092009A9A699A
:1007FC0042F004029A619B69054A03F004030193D9
:10080C00019B136801331360FBE700BF001002402B
:10081C00280000200E4B82B09A6942F001029A61C6
:10082C009A6902F001020092009ADA6942F0805251
:10083C00DA61DB69074A03F080530193019B53682B
:10084C0023F0E06343F00073536002B0704700BFC5
:10085C0000100240000001407047FEE7FEE7FEE793
:10086C00FEE7704770477047FFF7A0BC0F4B1A6844
:10087C0042F001021A6059680D4A0A405A601A681F
:10088C0022F0847222F480321A601A6822F48022D8
:10089C001A605A6822F4FE025A604FF41F029A60E2
:1008AC004FF00062034B9A60704700BF001002408B
:1008BC000000FFF800ED00E0002103E00B4B5B585B
:1008CC00435004310A480B4B42189A42F6D30A4A59
:1008DC0002E0002342F8043B084B9A42F9D3FFF79D
:1008EC00C5FF00F00FF8FFF773FF7047A809000869
:1008FC00000000200C0000200C0000203000002024
:10090C00FEE7000070B500250C4E0D4CA41BA41086
:10091C00A54209D100F022F800250A4E0A4CA41B6E
:10092C00A410A54205D170BD56F825309847013565
:10093C00EEE756F8253098470135F2E7A009000894
:10094C00A0090008A0090008A409000803460244F5
:10095C00934200D1704703F8011BF9E7F8B500BFCB
:10096C00F8BC08BC9E467047F8B500BFF8BC08BC84
:04097C009E467047DC
:1009800002030405060708090A0B0C0D0E0F1010D0
:10099000000000000000000001020304060708092F
:0409A0003101000819
:0409A4000D01000839
:0C09A800010000001000000000A24A0442
:04000005080008C522
:00000001FF
